{
	"Funciones avanzadas/requires.sol": {
		"Require": {
			"abi": [
				{
					"inputs": [
						{
							"internalType": "string",
							"name": "_pass",
							"type": "string"
						}
					],
					"name": "password",
					"outputs": [
						{
							"internalType": "string",
							"name": "",
							"type": "string"
						}
					],
					"stateMutability": "pure",
					"type": "function"
				},
				{
					"inputs": [
						{
							"internalType": "uint256",
							"name": "_amount",
							"type": "uint256"
						}
					],
					"name": "pay",
					"outputs": [
						{
							"internalType": "uint256",
							"name": "",
							"type": "uint256"
						}
					],
					"stateMutability": "nonpayable",
					"type": "function"
				},
				{
					"inputs": [],
					"name": "wallet",
					"outputs": [
						{
							"internalType": "uint256",
							"name": "",
							"type": "uint256"
						}
					],
					"stateMutability": "view",
					"type": "function"
				}
			],
			"devdoc": {
				"kind": "dev",
				"methods": {},
				"version": 1
			},
			"evm": {
				"assembly": "    /* \"Funciones avanzadas/requires.sol\":70:885  contract Require{\r... */\n  mstore(0x40, 0x80)\n    /* \"Funciones avanzadas/requires.sol\":514:515  0 */\n  0x00\n    /* \"Funciones avanzadas/requires.sol\":502:515  uint time = 0 */\n  dup1\n  sstore\n    /* \"Funciones avanzadas/requires.sol\":543:544  0 */\n  0x00\n    /* \"Funciones avanzadas/requires.sol\":522:544  uint public wallet = 0 */\n  0x01\n  sstore\n    /* \"Funciones avanzadas/requires.sol\":70:885  contract Require{\r... */\n  callvalue\n  dup1\n  iszero\n  tag_1\n  jumpi\n  0x00\n  dup1\n  revert\ntag_1:\n  pop\n  dataSize(sub_0)\n  dup1\n  dataOffset(sub_0)\n  0x00\n  codecopy\n  0x00\n  return\nstop\n\nsub_0: assembly {\n        /* \"Funciones avanzadas/requires.sol\":70:885  contract Require{\r... */\n      mstore(0x40, 0x80)\n      callvalue\n      dup1\n      iszero\n      tag_1\n      jumpi\n      0x00\n      dup1\n      revert\n    tag_1:\n      pop\n      jumpi(tag_2, lt(calldatasize, 0x04))\n      shr(0xe0, calldataload(0x00))\n      dup1\n      0x521eb273\n      eq\n      tag_3\n      jumpi\n      dup1\n      0x71d3f37a\n      eq\n      tag_4\n      jumpi\n      dup1\n      0xc290d691\n      eq\n      tag_5\n      jumpi\n    tag_2:\n      0x00\n      dup1\n      revert\n        /* \"Funciones avanzadas/requires.sol\":522:544  uint public wallet = 0 */\n    tag_3:\n      tag_6\n      tag_7\n      jump\t// in\n    tag_6:\n      mload(0x40)\n      tag_8\n      swap2\n      swap1\n      tag_9\n      jump\t// in\n    tag_8:\n      mload(0x40)\n      dup1\n      swap2\n      sub\n      swap1\n      return\n        /* \"Funciones avanzadas/requires.sol\":230:494  function password(string memory _pass)public pure returns(string memory){\r... */\n    tag_4:\n      tag_10\n      0x04\n      dup1\n      calldatasize\n      sub\n      dup2\n      add\n      swap1\n      tag_11\n      swap2\n      swap1\n      tag_12\n      jump\t// in\n    tag_11:\n      tag_13\n      jump\t// in\n    tag_10:\n      mload(0x40)\n      tag_14\n      swap2\n      swap1\n      tag_15\n      jump\t// in\n    tag_14:\n      mload(0x40)\n      dup1\n      swap2\n      sub\n      swap1\n      return\n        /* \"Funciones avanzadas/requires.sol\":655:882  function pay(uint _amount) public returns(uint){\r... */\n    tag_5:\n      tag_16\n      0x04\n      dup1\n      calldatasize\n      sub\n      dup2\n      add\n      swap1\n      tag_17\n      swap2\n      swap1\n      tag_18\n      jump\t// in\n    tag_17:\n      tag_19\n      jump\t// in\n    tag_16:\n      mload(0x40)\n      tag_20\n      swap2\n      swap1\n      tag_9\n      jump\t// in\n    tag_20:\n      mload(0x40)\n      dup1\n      swap2\n      sub\n      swap1\n      return\n        /* \"Funciones avanzadas/requires.sol\":522:544  uint public wallet = 0 */\n    tag_7:\n      sload(0x01)\n      dup2\n      jump\t// out\n        /* \"Funciones avanzadas/requires.sol\":230:494  function password(string memory _pass)public pure returns(string memory){\r... */\n    tag_13:\n        /* \"Funciones avanzadas/requires.sol\":288:301  string memory */\n      0x60\n        /* \"Funciones avanzadas/requires.sol\":369:397  abi.encodePacked(\"Password\") */\n      add(0x20, mload(0x40))\n      tag_22\n      swap1\n      tag_23\n      jump\t// in\n    tag_22:\n      mload(0x40)\n      0x20\n      dup2\n      dup4\n      sub\n      sub\n      dup2\n      mstore\n      swap1\n      0x40\n      mstore\n        /* \"Funciones avanzadas/requires.sol\":359:398  keccak256(abi.encodePacked(\"Password\")) */\n      dup1\n      mload\n      swap1\n      0x20\n      add\n      keccak256\n        /* \"Funciones avanzadas/requires.sol\":348:353  _pass */\n      dup3\n        /* \"Funciones avanzadas/requires.sol\":331:354  abi.encodePacked(_pass) */\n      add(0x20, mload(0x40))\n      tag_24\n      swap2\n      swap1\n      tag_25\n      jump\t// in\n    tag_24:\n      mload(0x40)\n      0x20\n      dup2\n      dup4\n      sub\n      sub\n      dup2\n      mstore\n      swap1\n      0x40\n      mstore\n        /* \"Funciones avanzadas/requires.sol\":321:355  keccak256(abi.encodePacked(_pass)) */\n      dup1\n      mload\n      swap1\n      0x20\n      add\n      keccak256\n        /* \"Funciones avanzadas/requires.sol\":321:398  keccak256(abi.encodePacked(_pass)) == keccak256(abi.encodePacked(\"Password\")) */\n      eq\n        /* \"Funciones avanzadas/requires.sol\":313:450  require(keccak256(abi.encodePacked(_pass)) == keccak256(abi.encodePacked(\"Password\")), \"The password is not the same as the one entered\") */\n      tag_26\n      jumpi\n      mload(0x40)\n      0x08c379a000000000000000000000000000000000000000000000000000000000\n      dup2\n      mstore\n      0x04\n      add\n      tag_27\n      swap1\n      tag_28\n      jump\t// in\n    tag_27:\n      mload(0x40)\n      dup1\n      swap2\n      sub\n      swap1\n      revert\n    tag_26:\n        /* \"Funciones avanzadas/requires.sol\":461:486  return \"Correct password\" */\n      mload(0x40)\n      dup1\n      0x40\n      add\n      0x40\n      mstore\n      dup1\n      0x10\n      dup2\n      mstore\n      0x20\n      add\n      0x436f72726563742070617373776f726400000000000000000000000000000000\n      dup2\n      mstore\n      pop\n      swap1\n      pop\n        /* \"Funciones avanzadas/requires.sol\":230:494  function password(string memory _pass)public pure returns(string memory){\r... */\n      swap2\n      swap1\n      pop\n      jump\t// out\n        /* \"Funciones avanzadas/requires.sol\":655:882  function pay(uint _amount) public returns(uint){\r... */\n    tag_19:\n        /* \"Funciones avanzadas/requires.sol\":697:701  uint */\n      0x00\n        /* \"Funciones avanzadas/requires.sol\":734:743  5 seconds */\n      0x05\n        /* \"Funciones avanzadas/requires.sol\":727:731  time */\n      sload(0x00)\n        /* \"Funciones avanzadas/requires.sol\":727:743  time + 5 seconds */\n      add\n        /* \"Funciones avanzadas/requires.sol\":721:724  now */\n      timestamp\n        /* \"Funciones avanzadas/requires.sol\":721:743  now > time + 5 seconds */\n      gt\n        /* \"Funciones avanzadas/requires.sol\":713:768  require(now > time + 5 seconds, \"You still can't pay!\") */\n      tag_30\n      jumpi\n      mload(0x40)\n      0x08c379a000000000000000000000000000000000000000000000000000000000\n      dup2\n      mstore\n      0x04\n      add\n      tag_31\n      swap1\n      tag_32\n      jump\t// in\n    tag_31:\n      mload(0x40)\n      dup1\n      swap2\n      sub\n      swap1\n      revert\n    tag_30:\n        /* \"Funciones avanzadas/requires.sol\":835:838  now */\n      timestamp\n        /* \"Funciones avanzadas/requires.sol\":828:832  time */\n      0x00\n        /* \"Funciones avanzadas/requires.sol\":828:838  time = now */\n      dup2\n      swap1\n      sstore\n      pop\n        /* \"Funciones avanzadas/requires.sol\":867:874  _amount */\n      dup2\n        /* \"Funciones avanzadas/requires.sol\":858:864  wallet */\n      sload(0x01)\n        /* \"Funciones avanzadas/requires.sol\":858:874  wallet + _amount */\n      add\n        /* \"Funciones avanzadas/requires.sol\":849:855  wallet */\n      0x01\n        /* \"Funciones avanzadas/requires.sol\":849:874  wallet = wallet + _amount */\n      dup2\n      swap1\n      sstore\n      pop\n        /* \"Funciones avanzadas/requires.sol\":655:882  function pay(uint _amount) public returns(uint){\r... */\n      swap2\n      swap1\n      pop\n      jump\t// out\n        /* \"--CODEGEN--\":6:448   */\n    tag_34:\n      0x00\n        /* \"--CODEGEN--\":108:111   */\n      dup3\n        /* \"--CODEGEN--\":101:105   */\n      0x1f\n        /* \"--CODEGEN--\":93:99   */\n      dup4\n        /* \"--CODEGEN--\":89:106   */\n      add\n        /* \"--CODEGEN--\":85:112   */\n      slt\n        /* \"--CODEGEN--\":75:77   */\n      tag_36\n      jumpi\n        /* \"--CODEGEN--\":126:127   */\n      0x00\n        /* \"--CODEGEN--\":123:124   */\n      dup1\n        /* \"--CODEGEN--\":116:128   */\n      revert\n        /* \"--CODEGEN--\":75:77   */\n    tag_36:\n        /* \"--CODEGEN--\":163:169   */\n      dup2\n        /* \"--CODEGEN--\":150:170   */\n      calldataload\n        /* \"--CODEGEN--\":185:250   */\n      tag_37\n        /* \"--CODEGEN--\":200:249   */\n      tag_38\n        /* \"--CODEGEN--\":242:248   */\n      dup3\n        /* \"--CODEGEN--\":200:249   */\n      tag_39\n      jump\t// in\n    tag_38:\n        /* \"--CODEGEN--\":185:250   */\n      tag_40\n      jump\t// in\n    tag_37:\n        /* \"--CODEGEN--\":176:250   */\n      swap2\n      pop\n        /* \"--CODEGEN--\":270:276   */\n      dup1\n        /* \"--CODEGEN--\":263:268   */\n      dup3\n        /* \"--CODEGEN--\":256:277   */\n      mstore\n        /* \"--CODEGEN--\":306:310   */\n      0x20\n        /* \"--CODEGEN--\":298:304   */\n      dup4\n        /* \"--CODEGEN--\":294:311   */\n      add\n        /* \"--CODEGEN--\":339:343   */\n      0x20\n        /* \"--CODEGEN--\":332:337   */\n      dup4\n        /* \"--CODEGEN--\":328:344   */\n      add\n        /* \"--CODEGEN--\":374:377   */\n      dup6\n        /* \"--CODEGEN--\":365:371   */\n      dup4\n        /* \"--CODEGEN--\":360:363   */\n      dup4\n        /* \"--CODEGEN--\":356:372   */\n      add\n        /* \"--CODEGEN--\":353:378   */\n      gt\n        /* \"--CODEGEN--\":350:352   */\n      iszero\n      tag_41\n      jumpi\n        /* \"--CODEGEN--\":391:392   */\n      0x00\n        /* \"--CODEGEN--\":388:389   */\n      dup1\n        /* \"--CODEGEN--\":381:393   */\n      revert\n        /* \"--CODEGEN--\":350:352   */\n    tag_41:\n        /* \"--CODEGEN--\":401:442   */\n      tag_42\n        /* \"--CODEGEN--\":435:441   */\n      dup4\n        /* \"--CODEGEN--\":430:433   */\n      dup3\n        /* \"--CODEGEN--\":425:428   */\n      dup5\n        /* \"--CODEGEN--\":401:442   */\n      tag_43\n      jump\t// in\n    tag_42:\n        /* \"--CODEGEN--\":68:448   */\n      pop\n      pop\n      pop\n      swap3\n      swap2\n      pop\n      pop\n      jump\t// out\n        /* \"--CODEGEN--\":456:586   */\n    tag_44:\n      0x00\n        /* \"--CODEGEN--\":536:542   */\n      dup2\n        /* \"--CODEGEN--\":523:543   */\n      calldataload\n        /* \"--CODEGEN--\":514:543   */\n      swap1\n      pop\n        /* \"--CODEGEN--\":548:581   */\n      tag_46\n        /* \"--CODEGEN--\":575:580   */\n      dup2\n        /* \"--CODEGEN--\":548:581   */\n      tag_47\n      jump\t// in\n    tag_46:\n        /* \"--CODEGEN--\":508:586   */\n      swap3\n      swap2\n      pop\n      pop\n      jump\t// out\n        /* \"--CODEGEN--\":593:940   */\n    tag_12:\n      0x00\n        /* \"--CODEGEN--\":707:709   */\n      0x20\n        /* \"--CODEGEN--\":695:704   */\n      dup3\n        /* \"--CODEGEN--\":686:693   */\n      dup5\n        /* \"--CODEGEN--\":682:705   */\n      sub\n        /* \"--CODEGEN--\":678:710   */\n      slt\n        /* \"--CODEGEN--\":675:677   */\n      iszero\n      tag_49\n      jumpi\n        /* \"--CODEGEN--\":723:724   */\n      0x00\n        /* \"--CODEGEN--\":720:721   */\n      dup1\n        /* \"--CODEGEN--\":713:725   */\n      revert\n        /* \"--CODEGEN--\":675:677   */\n    tag_49:\n        /* \"--CODEGEN--\":786:787   */\n      0x00\n        /* \"--CODEGEN--\":775:784   */\n      dup3\n        /* \"--CODEGEN--\":771:788   */\n      add\n        /* \"--CODEGEN--\":758:789   */\n      calldataload\n        /* \"--CODEGEN--\":809:827   */\n      0xffffffffffffffff\n        /* \"--CODEGEN--\":801:807   */\n      dup2\n        /* \"--CODEGEN--\":798:828   */\n      gt\n        /* \"--CODEGEN--\":795:797   */\n      iszero\n      tag_50\n      jumpi\n        /* \"--CODEGEN--\":841:842   */\n      0x00\n        /* \"--CODEGEN--\":838:839   */\n      dup1\n        /* \"--CODEGEN--\":831:843   */\n      revert\n        /* \"--CODEGEN--\":795:797   */\n    tag_50:\n        /* \"--CODEGEN--\":861:924   */\n      tag_51\n        /* \"--CODEGEN--\":916:923   */\n      dup5\n        /* \"--CODEGEN--\":907:913   */\n      dup3\n        /* \"--CODEGEN--\":896:905   */\n      dup6\n        /* \"--CODEGEN--\":892:914   */\n      add\n        /* \"--CODEGEN--\":861:924   */\n      tag_34\n      jump\t// in\n    tag_51:\n        /* \"--CODEGEN--\":851:924   */\n      swap2\n      pop\n        /* \"--CODEGEN--\":737:930   */\n      pop\n        /* \"--CODEGEN--\":669:940   */\n      swap3\n      swap2\n      pop\n      pop\n      jump\t// out\n        /* \"--CODEGEN--\":947:1188   */\n    tag_18:\n      0x00\n        /* \"--CODEGEN--\":1051:1053   */\n      0x20\n        /* \"--CODEGEN--\":1039:1048   */\n      dup3\n        /* \"--CODEGEN--\":1030:1037   */\n      dup5\n        /* \"--CODEGEN--\":1026:1049   */\n      sub\n        /* \"--CODEGEN--\":1022:1054   */\n      slt\n        /* \"--CODEGEN--\":1019:1021   */\n      iszero\n      tag_53\n      jumpi\n        /* \"--CODEGEN--\":1067:1068   */\n      0x00\n        /* \"--CODEGEN--\":1064:1065   */\n      dup1\n        /* \"--CODEGEN--\":1057:1069   */\n      revert\n        /* \"--CODEGEN--\":1019:1021   */\n    tag_53:\n        /* \"--CODEGEN--\":1102:1103   */\n      0x00\n        /* \"--CODEGEN--\":1119:1172   */\n      tag_54\n        /* \"--CODEGEN--\":1164:1171   */\n      dup5\n        /* \"--CODEGEN--\":1155:1161   */\n      dup3\n        /* \"--CODEGEN--\":1144:1153   */\n      dup6\n        /* \"--CODEGEN--\":1140:1162   */\n      add\n        /* \"--CODEGEN--\":1119:1172   */\n      tag_44\n      jump\t// in\n    tag_54:\n        /* \"--CODEGEN--\":1109:1172   */\n      swap2\n      pop\n        /* \"--CODEGEN--\":1081:1178   */\n      pop\n        /* \"--CODEGEN--\":1013:1188   */\n      swap3\n      swap2\n      pop\n      pop\n      jump\t// out\n        /* \"--CODEGEN--\":1195:1542   */\n    tag_55:\n      0x00\n        /* \"--CODEGEN--\":1307:1346   */\n      tag_57\n        /* \"--CODEGEN--\":1340:1345   */\n      dup3\n        /* \"--CODEGEN--\":1307:1346   */\n      tag_58\n      jump\t// in\n    tag_57:\n        /* \"--CODEGEN--\":1358:1429   */\n      tag_59\n        /* \"--CODEGEN--\":1422:1428   */\n      dup2\n        /* \"--CODEGEN--\":1417:1420   */\n      dup6\n        /* \"--CODEGEN--\":1358:1429   */\n      tag_60\n      jump\t// in\n    tag_59:\n        /* \"--CODEGEN--\":1351:1429   */\n      swap4\n      pop\n        /* \"--CODEGEN--\":1434:1486   */\n      tag_61\n        /* \"--CODEGEN--\":1479:1485   */\n      dup2\n        /* \"--CODEGEN--\":1474:1477   */\n      dup6\n        /* \"--CODEGEN--\":1467:1471   */\n      0x20\n        /* \"--CODEGEN--\":1460:1465   */\n      dup7\n        /* \"--CODEGEN--\":1456:1472   */\n      add\n        /* \"--CODEGEN--\":1434:1486   */\n      tag_62\n      jump\t// in\n    tag_61:\n        /* \"--CODEGEN--\":1507:1536   */\n      tag_63\n        /* \"--CODEGEN--\":1529:1535   */\n      dup2\n        /* \"--CODEGEN--\":1507:1536   */\n      tag_64\n      jump\t// in\n    tag_63:\n        /* \"--CODEGEN--\":1502:1505   */\n      dup5\n        /* \"--CODEGEN--\":1498:1537   */\n      add\n        /* \"--CODEGEN--\":1491:1537   */\n      swap2\n      pop\n        /* \"--CODEGEN--\":1287:1542   */\n      pop\n      swap3\n      swap2\n      pop\n      pop\n      jump\t// out\n        /* \"--CODEGEN--\":1549:1909   */\n    tag_65:\n      0x00\n        /* \"--CODEGEN--\":1679:1718   */\n      tag_67\n        /* \"--CODEGEN--\":1712:1717   */\n      dup3\n        /* \"--CODEGEN--\":1679:1718   */\n      tag_58\n      jump\t// in\n    tag_67:\n        /* \"--CODEGEN--\":1730:1819   */\n      tag_68\n        /* \"--CODEGEN--\":1812:1818   */\n      dup2\n        /* \"--CODEGEN--\":1807:1810   */\n      dup6\n        /* \"--CODEGEN--\":1730:1819   */\n      tag_69\n      jump\t// in\n    tag_68:\n        /* \"--CODEGEN--\":1723:1819   */\n      swap4\n      pop\n        /* \"--CODEGEN--\":1824:1876   */\n      tag_70\n        /* \"--CODEGEN--\":1869:1875   */\n      dup2\n        /* \"--CODEGEN--\":1864:1867   */\n      dup6\n        /* \"--CODEGEN--\":1857:1861   */\n      0x20\n        /* \"--CODEGEN--\":1850:1855   */\n      dup7\n        /* \"--CODEGEN--\":1846:1862   */\n      add\n        /* \"--CODEGEN--\":1824:1876   */\n      tag_62\n      jump\t// in\n    tag_70:\n        /* \"--CODEGEN--\":1897:1903   */\n      dup1\n        /* \"--CODEGEN--\":1892:1895   */\n      dup5\n        /* \"--CODEGEN--\":1888:1904   */\n      add\n        /* \"--CODEGEN--\":1881:1904   */\n      swap2\n      pop\n        /* \"--CODEGEN--\":1659:1909   */\n      pop\n      swap3\n      swap2\n      pop\n      pop\n      jump\t// out\n        /* \"--CODEGEN--\":1917:2259   */\n    tag_71:\n      0x00\n        /* \"--CODEGEN--\":2095:2179   */\n      tag_73\n        /* \"--CODEGEN--\":2177:2178   */\n      0x08\n        /* \"--CODEGEN--\":2172:2175   */\n      dup4\n        /* \"--CODEGEN--\":2095:2179   */\n      tag_69\n      jump\t// in\n    tag_73:\n        /* \"--CODEGEN--\":2088:2179   */\n      swap2\n      pop\n        /* \"--CODEGEN--\":2212:2222   */\n      0x50617373776f7264000000000000000000000000000000000000000000000000\n        /* \"--CODEGEN--\":2208:2209   */\n      0x00\n        /* \"--CODEGEN--\":2203:2206   */\n      dup4\n        /* \"--CODEGEN--\":2199:2210   */\n      add\n        /* \"--CODEGEN--\":2192:2223   */\n      mstore\n        /* \"--CODEGEN--\":2251:2252   */\n      0x08\n        /* \"--CODEGEN--\":2246:2249   */\n      dup3\n        /* \"--CODEGEN--\":2242:2253   */\n      add\n        /* \"--CODEGEN--\":2235:2253   */\n      swap1\n      pop\n        /* \"--CODEGEN--\":2081:2259   */\n      swap2\n      swap1\n      pop\n      jump\t// out\n        /* \"--CODEGEN--\":2268:2652   */\n    tag_74:\n      0x00\n        /* \"--CODEGEN--\":2428:2495   */\n      tag_76\n        /* \"--CODEGEN--\":2492:2494   */\n      0x2f\n        /* \"--CODEGEN--\":2487:2490   */\n      dup4\n        /* \"--CODEGEN--\":2428:2495   */\n      tag_60\n      jump\t// in\n    tag_76:\n        /* \"--CODEGEN--\":2421:2495   */\n      swap2\n      pop\n        /* \"--CODEGEN--\":2528:2562   */\n      0x5468652070617373776f7264206973206e6f74207468652073616d6520617320\n        /* \"--CODEGEN--\":2524:2525   */\n      0x00\n        /* \"--CODEGEN--\":2519:2522   */\n      dup4\n        /* \"--CODEGEN--\":2515:2526   */\n      add\n        /* \"--CODEGEN--\":2508:2563   */\n      mstore\n        /* \"--CODEGEN--\":2597:2614   */\n      0x746865206f6e6520656e74657265640000000000000000000000000000000000\n        /* \"--CODEGEN--\":2592:2594   */\n      0x20\n        /* \"--CODEGEN--\":2587:2590   */\n      dup4\n        /* \"--CODEGEN--\":2583:2595   */\n      add\n        /* \"--CODEGEN--\":2576:2615   */\n      mstore\n        /* \"--CODEGEN--\":2643:2645   */\n      0x40\n        /* \"--CODEGEN--\":2638:2641   */\n      dup3\n        /* \"--CODEGEN--\":2634:2646   */\n      add\n        /* \"--CODEGEN--\":2627:2646   */\n      swap1\n      pop\n        /* \"--CODEGEN--\":2414:2652   */\n      swap2\n      swap1\n      pop\n      jump\t// out\n        /* \"--CODEGEN--\":2661:2981   */\n    tag_77:\n      0x00\n        /* \"--CODEGEN--\":2821:2888   */\n      tag_79\n        /* \"--CODEGEN--\":2885:2887   */\n      0x14\n        /* \"--CODEGEN--\":2880:2883   */\n      dup4\n        /* \"--CODEGEN--\":2821:2888   */\n      tag_60\n      jump\t// in\n    tag_79:\n        /* \"--CODEGEN--\":2814:2888   */\n      swap2\n      pop\n        /* \"--CODEGEN--\":2921:2943   */\n      0x596f75207374696c6c2063616e27742070617921000000000000000000000000\n        /* \"--CODEGEN--\":2917:2918   */\n      0x00\n        /* \"--CODEGEN--\":2912:2915   */\n      dup4\n        /* \"--CODEGEN--\":2908:2919   */\n      add\n        /* \"--CODEGEN--\":2901:2944   */\n      mstore\n        /* \"--CODEGEN--\":2972:2974   */\n      0x20\n        /* \"--CODEGEN--\":2967:2970   */\n      dup3\n        /* \"--CODEGEN--\":2963:2975   */\n      add\n        /* \"--CODEGEN--\":2956:2975   */\n      swap1\n      pop\n        /* \"--CODEGEN--\":2807:2981   */\n      swap2\n      swap1\n      pop\n      jump\t// out\n        /* \"--CODEGEN--\":2989:3102   */\n    tag_80:\n        /* \"--CODEGEN--\":3072:3096   */\n      tag_82\n        /* \"--CODEGEN--\":3090:3095   */\n      dup2\n        /* \"--CODEGEN--\":3072:3096   */\n      tag_83\n      jump\t// in\n    tag_82:\n        /* \"--CODEGEN--\":3067:3070   */\n      dup3\n        /* \"--CODEGEN--\":3060:3097   */\n      mstore\n        /* \"--CODEGEN--\":3054:3102   */\n      pop\n      pop\n      jump\t// out\n        /* \"--CODEGEN--\":3109:3384   */\n    tag_25:\n      0x00\n        /* \"--CODEGEN--\":3264:3359   */\n      tag_85\n        /* \"--CODEGEN--\":3355:3358   */\n      dup3\n        /* \"--CODEGEN--\":3346:3352   */\n      dup5\n        /* \"--CODEGEN--\":3264:3359   */\n      tag_65\n      jump\t// in\n    tag_85:\n        /* \"--CODEGEN--\":3257:3359   */\n      swap2\n      pop\n        /* \"--CODEGEN--\":3376:3379   */\n      dup2\n        /* \"--CODEGEN--\":3369:3379   */\n      swap1\n      pop\n        /* \"--CODEGEN--\":3245:3384   */\n      swap3\n      swap2\n      pop\n      pop\n      jump\t// out\n        /* \"--CODEGEN--\":3391:3772   */\n    tag_23:\n      0x00\n        /* \"--CODEGEN--\":3599:3747   */\n      tag_87\n        /* \"--CODEGEN--\":3743:3746   */\n      dup3\n        /* \"--CODEGEN--\":3599:3747   */\n      tag_71\n      jump\t// in\n    tag_87:\n        /* \"--CODEGEN--\":3592:3747   */\n      swap2\n      pop\n        /* \"--CODEGEN--\":3764:3767   */\n      dup2\n        /* \"--CODEGEN--\":3757:3767   */\n      swap1\n      pop\n        /* \"--CODEGEN--\":3580:3772   */\n      swap2\n      swap1\n      pop\n      jump\t// out\n        /* \"--CODEGEN--\":3779:4089   */\n    tag_15:\n      0x00\n        /* \"--CODEGEN--\":3926:3928   */\n      0x20\n        /* \"--CODEGEN--\":3915:3924   */\n      dup3\n        /* \"--CODEGEN--\":3911:3929   */\n      add\n        /* \"--CODEGEN--\":3903:3929   */\n      swap1\n      pop\n        /* \"--CODEGEN--\":3976:3985   */\n      dup2\n        /* \"--CODEGEN--\":3970:3974   */\n      dup2\n        /* \"--CODEGEN--\":3966:3986   */\n      sub\n        /* \"--CODEGEN--\":3962:3963   */\n      0x00\n        /* \"--CODEGEN--\":3951:3960   */\n      dup4\n        /* \"--CODEGEN--\":3947:3964   */\n      add\n        /* \"--CODEGEN--\":3940:3987   */\n      mstore\n        /* \"--CODEGEN--\":4001:4079   */\n      tag_89\n        /* \"--CODEGEN--\":4074:4078   */\n      dup2\n        /* \"--CODEGEN--\":4065:4071   */\n      dup5\n        /* \"--CODEGEN--\":4001:4079   */\n      tag_55\n      jump\t// in\n    tag_89:\n        /* \"--CODEGEN--\":3993:4079   */\n      swap1\n      pop\n        /* \"--CODEGEN--\":3897:4089   */\n      swap3\n      swap2\n      pop\n      pop\n      jump\t// out\n        /* \"--CODEGEN--\":4096:4512   */\n    tag_28:\n      0x00\n        /* \"--CODEGEN--\":4296:4298   */\n      0x20\n        /* \"--CODEGEN--\":4285:4294   */\n      dup3\n        /* \"--CODEGEN--\":4281:4299   */\n      add\n        /* \"--CODEGEN--\":4273:4299   */\n      swap1\n      pop\n        /* \"--CODEGEN--\":4346:4355   */\n      dup2\n        /* \"--CODEGEN--\":4340:4344   */\n      dup2\n        /* \"--CODEGEN--\":4336:4356   */\n      sub\n        /* \"--CODEGEN--\":4332:4333   */\n      0x00\n        /* \"--CODEGEN--\":4321:4330   */\n      dup4\n        /* \"--CODEGEN--\":4317:4334   */\n      add\n        /* \"--CODEGEN--\":4310:4357   */\n      mstore\n        /* \"--CODEGEN--\":4371:4502   */\n      tag_91\n        /* \"--CODEGEN--\":4497:4501   */\n      dup2\n        /* \"--CODEGEN--\":4371:4502   */\n      tag_74\n      jump\t// in\n    tag_91:\n        /* \"--CODEGEN--\":4363:4502   */\n      swap1\n      pop\n        /* \"--CODEGEN--\":4267:4512   */\n      swap2\n      swap1\n      pop\n      jump\t// out\n        /* \"--CODEGEN--\":4519:4935   */\n    tag_32:\n      0x00\n        /* \"--CODEGEN--\":4719:4721   */\n      0x20\n        /* \"--CODEGEN--\":4708:4717   */\n      dup3\n        /* \"--CODEGEN--\":4704:4722   */\n      add\n        /* \"--CODEGEN--\":4696:4722   */\n      swap1\n      pop\n        /* \"--CODEGEN--\":4769:4778   */\n      dup2\n        /* \"--CODEGEN--\":4763:4767   */\n      dup2\n        /* \"--CODEGEN--\":4759:4779   */\n      sub\n        /* \"--CODEGEN--\":4755:4756   */\n      0x00\n        /* \"--CODEGEN--\":4744:4753   */\n      dup4\n        /* \"--CODEGEN--\":4740:4757   */\n      add\n        /* \"--CODEGEN--\":4733:4780   */\n      mstore\n        /* \"--CODEGEN--\":4794:4925   */\n      tag_93\n        /* \"--CODEGEN--\":4920:4924   */\n      dup2\n        /* \"--CODEGEN--\":4794:4925   */\n      tag_77\n      jump\t// in\n    tag_93:\n        /* \"--CODEGEN--\":4786:4925   */\n      swap1\n      pop\n        /* \"--CODEGEN--\":4690:4935   */\n      swap2\n      swap1\n      pop\n      jump\t// out\n        /* \"--CODEGEN--\":4942:5164   */\n    tag_9:\n      0x00\n        /* \"--CODEGEN--\":5069:5071   */\n      0x20\n        /* \"--CODEGEN--\":5058:5067   */\n      dup3\n        /* \"--CODEGEN--\":5054:5072   */\n      add\n        /* \"--CODEGEN--\":5046:5072   */\n      swap1\n      pop\n        /* \"--CODEGEN--\":5083:5154   */\n      tag_95\n        /* \"--CODEGEN--\":5151:5152   */\n      0x00\n        /* \"--CODEGEN--\":5140:5149   */\n      dup4\n        /* \"--CODEGEN--\":5136:5153   */\n      add\n        /* \"--CODEGEN--\":5127:5133   */\n      dup5\n        /* \"--CODEGEN--\":5083:5154   */\n      tag_80\n      jump\t// in\n    tag_95:\n        /* \"--CODEGEN--\":5040:5164   */\n      swap3\n      swap2\n      pop\n      pop\n      jump\t// out\n        /* \"--CODEGEN--\":5171:5427   */\n    tag_40:\n      0x00\n        /* \"--CODEGEN--\":5233:5235   */\n      0x40\n        /* \"--CODEGEN--\":5227:5236   */\n      mload\n        /* \"--CODEGEN--\":5217:5236   */\n      swap1\n      pop\n        /* \"--CODEGEN--\":5271:5275   */\n      dup2\n        /* \"--CODEGEN--\":5263:5269   */\n      dup2\n        /* \"--CODEGEN--\":5259:5276   */\n      add\n        /* \"--CODEGEN--\":5370:5376   */\n      dup2\n        /* \"--CODEGEN--\":5358:5368   */\n      dup2\n        /* \"--CODEGEN--\":5355:5377   */\n      lt\n        /* \"--CODEGEN--\":5334:5352   */\n      0xffffffffffffffff\n        /* \"--CODEGEN--\":5322:5332   */\n      dup3\n        /* \"--CODEGEN--\":5319:5353   */\n      gt\n        /* \"--CODEGEN--\":5316:5378   */\n      or\n        /* \"--CODEGEN--\":5313:5315   */\n      iszero\n      tag_97\n      jumpi\n        /* \"--CODEGEN--\":5391:5392   */\n      0x00\n        /* \"--CODEGEN--\":5388:5389   */\n      dup1\n        /* \"--CODEGEN--\":5381:5393   */\n      revert\n        /* \"--CODEGEN--\":5313:5315   */\n    tag_97:\n        /* \"--CODEGEN--\":5411:5421   */\n      dup1\n        /* \"--CODEGEN--\":5407:5409   */\n      0x40\n        /* \"--CODEGEN--\":5400:5422   */\n      mstore\n        /* \"--CODEGEN--\":5211:5427   */\n      pop\n      swap2\n      swap1\n      pop\n      jump\t// out\n        /* \"--CODEGEN--\":5434:5756   */\n    tag_39:\n      0x00\n        /* \"--CODEGEN--\":5578:5596   */\n      0xffffffffffffffff\n        /* \"--CODEGEN--\":5570:5576   */\n      dup3\n        /* \"--CODEGEN--\":5567:5597   */\n      gt\n        /* \"--CODEGEN--\":5564:5566   */\n      iszero\n      tag_99\n      jumpi\n        /* \"--CODEGEN--\":5610:5611   */\n      0x00\n        /* \"--CODEGEN--\":5607:5608   */\n      dup1\n        /* \"--CODEGEN--\":5600:5612   */\n      revert\n        /* \"--CODEGEN--\":5564:5566   */\n    tag_99:\n        /* \"--CODEGEN--\":5677:5681   */\n      0x1f\n        /* \"--CODEGEN--\":5673:5682   */\n      not\n        /* \"--CODEGEN--\":5666:5670   */\n      0x1f\n        /* \"--CODEGEN--\":5658:5664   */\n      dup4\n        /* \"--CODEGEN--\":5654:5671   */\n      add\n        /* \"--CODEGEN--\":5650:5683   */\n      and\n        /* \"--CODEGEN--\":5642:5683   */\n      swap1\n      pop\n        /* \"--CODEGEN--\":5741:5745   */\n      0x20\n        /* \"--CODEGEN--\":5735:5739   */\n      dup2\n        /* \"--CODEGEN--\":5731:5746   */\n      add\n        /* \"--CODEGEN--\":5723:5746   */\n      swap1\n      pop\n        /* \"--CODEGEN--\":5501:5756   */\n      swap2\n      swap1\n      pop\n      jump\t// out\n        /* \"--CODEGEN--\":5763:5885   */\n    tag_58:\n      0x00\n        /* \"--CODEGEN--\":5857:5862   */\n      dup2\n        /* \"--CODEGEN--\":5851:5863   */\n      mload\n        /* \"--CODEGEN--\":5841:5863   */\n      swap1\n      pop\n        /* \"--CODEGEN--\":5822:5885   */\n      swap2\n      swap1\n      pop\n      jump\t// out\n        /* \"--CODEGEN--\":5893:6056   */\n    tag_60:\n      0x00\n        /* \"--CODEGEN--\":6008:6014   */\n      dup3\n        /* \"--CODEGEN--\":6003:6006   */\n      dup3\n        /* \"--CODEGEN--\":5996:6015   */\n      mstore\n        /* \"--CODEGEN--\":6045:6049   */\n      0x20\n        /* \"--CODEGEN--\":6040:6043   */\n      dup3\n        /* \"--CODEGEN--\":6036:6050   */\n      add\n        /* \"--CODEGEN--\":6021:6050   */\n      swap1\n      pop\n        /* \"--CODEGEN--\":5989:6056   */\n      swap3\n      swap2\n      pop\n      pop\n      jump\t// out\n        /* \"--CODEGEN--\":6065:6210   */\n    tag_69:\n      0x00\n        /* \"--CODEGEN--\":6201:6204   */\n      dup2\n        /* \"--CODEGEN--\":6186:6204   */\n      swap1\n      pop\n        /* \"--CODEGEN--\":6179:6210   */\n      swap3\n      swap2\n      pop\n      pop\n      jump\t// out\n        /* \"--CODEGEN--\":6218:6290   */\n    tag_83:\n      0x00\n        /* \"--CODEGEN--\":6280:6285   */\n      dup2\n        /* \"--CODEGEN--\":6269:6285   */\n      swap1\n      pop\n        /* \"--CODEGEN--\":6263:6290   */\n      swap2\n      swap1\n      pop\n      jump\t// out\n        /* \"--CODEGEN--\":6298:6443   */\n    tag_43:\n        /* \"--CODEGEN--\":6379:6385   */\n      dup3\n        /* \"--CODEGEN--\":6374:6377   */\n      dup2\n        /* \"--CODEGEN--\":6369:6372   */\n      dup4\n        /* \"--CODEGEN--\":6356:6386   */\n      calldatacopy\n        /* \"--CODEGEN--\":6435:6436   */\n      0x00\n        /* \"--CODEGEN--\":6426:6432   */\n      dup4\n        /* \"--CODEGEN--\":6421:6424   */\n      dup4\n        /* \"--CODEGEN--\":6417:6433   */\n      add\n        /* \"--CODEGEN--\":6410:6437   */\n      mstore\n        /* \"--CODEGEN--\":6349:6443   */\n      pop\n      pop\n      pop\n      jump\t// out\n        /* \"--CODEGEN--\":6452:6720   */\n    tag_62:\n        /* \"--CODEGEN--\":6517:6518   */\n      0x00\n        /* \"--CODEGEN--\":6524:6625   */\n    tag_106:\n        /* \"--CODEGEN--\":6538:6544   */\n      dup4\n        /* \"--CODEGEN--\":6535:6536   */\n      dup2\n        /* \"--CODEGEN--\":6532:6545   */\n      lt\n        /* \"--CODEGEN--\":6524:6625   */\n      iszero\n      tag_108\n      jumpi\n        /* \"--CODEGEN--\":6614:6615   */\n      dup1\n        /* \"--CODEGEN--\":6609:6612   */\n      dup3\n        /* \"--CODEGEN--\":6605:6616   */\n      add\n        /* \"--CODEGEN--\":6599:6617   */\n      mload\n        /* \"--CODEGEN--\":6595:6596   */\n      dup2\n        /* \"--CODEGEN--\":6590:6593   */\n      dup5\n        /* \"--CODEGEN--\":6586:6597   */\n      add\n        /* \"--CODEGEN--\":6579:6618   */\n      mstore\n        /* \"--CODEGEN--\":6560:6562   */\n      0x20\n        /* \"--CODEGEN--\":6557:6558   */\n      dup2\n        /* \"--CODEGEN--\":6553:6563   */\n      add\n        /* \"--CODEGEN--\":6548:6563   */\n      swap1\n      pop\n        /* \"--CODEGEN--\":6524:6625   */\n      jump(tag_106)\n    tag_108:\n        /* \"--CODEGEN--\":6640:6646   */\n      dup4\n        /* \"--CODEGEN--\":6637:6638   */\n      dup2\n        /* \"--CODEGEN--\":6634:6647   */\n      gt\n        /* \"--CODEGEN--\":6631:6633   */\n      iszero\n      tag_109\n      jumpi\n        /* \"--CODEGEN--\":6705:6706   */\n      0x00\n        /* \"--CODEGEN--\":6696:6702   */\n      dup5\n        /* \"--CODEGEN--\":6691:6694   */\n      dup5\n        /* \"--CODEGEN--\":6687:6703   */\n      add\n        /* \"--CODEGEN--\":6680:6707   */\n      mstore\n        /* \"--CODEGEN--\":6631:6633   */\n    tag_109:\n        /* \"--CODEGEN--\":6501:6720   */\n      pop\n      pop\n      pop\n      pop\n      jump\t// out\n        /* \"--CODEGEN--\":6728:6825   */\n    tag_64:\n      0x00\n        /* \"--CODEGEN--\":6816:6818   */\n      0x1f\n        /* \"--CODEGEN--\":6812:6819   */\n      not\n        /* \"--CODEGEN--\":6807:6809   */\n      0x1f\n        /* \"--CODEGEN--\":6800:6805   */\n      dup4\n        /* \"--CODEGEN--\":6796:6810   */\n      add\n        /* \"--CODEGEN--\":6792:6820   */\n      and\n        /* \"--CODEGEN--\":6782:6820   */\n      swap1\n      pop\n        /* \"--CODEGEN--\":6776:6825   */\n      swap2\n      swap1\n      pop\n      jump\t// out\n        /* \"--CODEGEN--\":6833:6950   */\n    tag_47:\n        /* \"--CODEGEN--\":6902:6926   */\n      tag_112\n        /* \"--CODEGEN--\":6920:6925   */\n      dup2\n        /* \"--CODEGEN--\":6902:6926   */\n      tag_83\n      jump\t// in\n    tag_112:\n        /* \"--CODEGEN--\":6895:6900   */\n      dup2\n        /* \"--CODEGEN--\":6892:6927   */\n      eq\n        /* \"--CODEGEN--\":6882:6884   */\n      tag_113\n      jumpi\n        /* \"--CODEGEN--\":6941:6942   */\n      0x00\n        /* \"--CODEGEN--\":6938:6939   */\n      dup1\n        /* \"--CODEGEN--\":6931:6943   */\n      revert\n        /* \"--CODEGEN--\":6882:6884   */\n    tag_113:\n        /* \"--CODEGEN--\":6876:6950   */\n      pop\n      jump\t// out\n\n    auxdata: 0xa26469706673582212205eb9ad88a0b36d0858f56c9e828901b438af8c03266f60d60ac4584eb8c00e7164736f6c634300060c0033\n}\n",
				"bytecode": {
					"linkReferences": {},
					"object": "608060405260008055600060015534801561001957600080fd5b506105fa806100296000396000f3fe608060405234801561001057600080fd5b50600436106100415760003560e01c8063521eb2731461004657806371d3f37a14610064578063c290d69114610094575b600080fd5b61004e6100c4565b60405161005b91906104b5565b60405180910390f35b61007e6004803603810190610079919061025e565b6100ca565b60405161008b9190610453565b60405180910390f35b6100ae60048036038101906100a9919061029f565b610195565b6040516100bb91906104b5565b60405180910390f35b60015481565b60606040516020016100db9061043e565b60405160208183030381529060405280519060200120826040516020016101029190610427565b6040516020818303038152906040528051906020012014610158576040517f08c379a000000000000000000000000000000000000000000000000000000000815260040161014f90610475565b60405180910390fd5b6040518060400160405280601081526020017f436f72726563742070617373776f7264000000000000000000000000000000008152509050919050565b600060056000540142116101de576040517f08c379a00000000000000000000000000000000000000000000000000000000081526004016101d590610495565b60405180910390fd5b426000819055508160015401600181905550919050565b600082601f83011261020657600080fd5b8135610219610214826104fd565b6104d0565b9150808252602083016020830185838301111561023557600080fd5b61024083828461055a565b50505092915050565b600081359050610258816105ad565b92915050565b60006020828403121561027057600080fd5b600082013567ffffffffffffffff81111561028a57600080fd5b610296848285016101f5565b91505092915050565b6000602082840312156102b157600080fd5b60006102bf84828501610249565b91505092915050565b60006102d382610529565b6102dd8185610534565b93506102ed818560208601610569565b6102f68161059c565b840191505092915050565b600061030c82610529565b6103168185610545565b9350610326818560208601610569565b80840191505092915050565b600061033f600883610545565b91507f50617373776f72640000000000000000000000000000000000000000000000006000830152600882019050919050565b600061037f602f83610534565b91507f5468652070617373776f7264206973206e6f74207468652073616d652061732060008301527f746865206f6e6520656e746572656400000000000000000000000000000000006020830152604082019050919050565b60006103e5601483610534565b91507f596f75207374696c6c2063616e277420706179210000000000000000000000006000830152602082019050919050565b61042181610550565b82525050565b60006104338284610301565b915081905092915050565b600061044982610332565b9150819050919050565b6000602082019050818103600083015261046d81846102c8565b905092915050565b6000602082019050818103600083015261048e81610372565b9050919050565b600060208201905081810360008301526104ae816103d8565b9050919050565b60006020820190506104ca6000830184610418565b92915050565b6000604051905081810181811067ffffffffffffffff821117156104f357600080fd5b8060405250919050565b600067ffffffffffffffff82111561051457600080fd5b601f19601f8301169050602081019050919050565b600081519050919050565b600082825260208201905092915050565b600081905092915050565b6000819050919050565b82818337600083830152505050565b60005b8381101561058757808201518184015260208101905061056c565b83811115610596576000848401525b50505050565b6000601f19601f8301169050919050565b6105b681610550565b81146105c157600080fd5b5056fea26469706673582212205eb9ad88a0b36d0858f56c9e828901b438af8c03266f60d60ac4584eb8c00e7164736f6c634300060c0033",
					"opcodes": "PUSH1 0x80 PUSH1 0x40 MSTORE PUSH1 0x0 DUP1 SSTORE PUSH1 0x0 PUSH1 0x1 SSTORE CALLVALUE DUP1 ISZERO PUSH2 0x19 JUMPI PUSH1 0x0 DUP1 REVERT JUMPDEST POP PUSH2 0x5FA DUP1 PUSH2 0x29 PUSH1 0x0 CODECOPY PUSH1 0x0 RETURN INVALID PUSH1 0x80 PUSH1 0x40 MSTORE CALLVALUE DUP1 ISZERO PUSH2 0x10 JUMPI PUSH1 0x0 DUP1 REVERT JUMPDEST POP PUSH1 0x4 CALLDATASIZE LT PUSH2 0x41 JUMPI PUSH1 0x0 CALLDATALOAD PUSH1 0xE0 SHR DUP1 PUSH4 0x521EB273 EQ PUSH2 0x46 JUMPI DUP1 PUSH4 0x71D3F37A EQ PUSH2 0x64 JUMPI DUP1 PUSH4 0xC290D691 EQ PUSH2 0x94 JUMPI JUMPDEST PUSH1 0x0 DUP1 REVERT JUMPDEST PUSH2 0x4E PUSH2 0xC4 JUMP JUMPDEST PUSH1 0x40 MLOAD PUSH2 0x5B SWAP2 SWAP1 PUSH2 0x4B5 JUMP JUMPDEST PUSH1 0x40 MLOAD DUP1 SWAP2 SUB SWAP1 RETURN JUMPDEST PUSH2 0x7E PUSH1 0x4 DUP1 CALLDATASIZE SUB DUP2 ADD SWAP1 PUSH2 0x79 SWAP2 SWAP1 PUSH2 0x25E JUMP JUMPDEST PUSH2 0xCA JUMP JUMPDEST PUSH1 0x40 MLOAD PUSH2 0x8B SWAP2 SWAP1 PUSH2 0x453 JUMP JUMPDEST PUSH1 0x40 MLOAD DUP1 SWAP2 SUB SWAP1 RETURN JUMPDEST PUSH2 0xAE PUSH1 0x4 DUP1 CALLDATASIZE SUB DUP2 ADD SWAP1 PUSH2 0xA9 SWAP2 SWAP1 PUSH2 0x29F JUMP JUMPDEST PUSH2 0x195 JUMP JUMPDEST PUSH1 0x40 MLOAD PUSH2 0xBB SWAP2 SWAP1 PUSH2 0x4B5 JUMP JUMPDEST PUSH1 0x40 MLOAD DUP1 SWAP2 SUB SWAP1 RETURN JUMPDEST PUSH1 0x1 SLOAD DUP2 JUMP JUMPDEST PUSH1 0x60 PUSH1 0x40 MLOAD PUSH1 0x20 ADD PUSH2 0xDB SWAP1 PUSH2 0x43E JUMP JUMPDEST PUSH1 0x40 MLOAD PUSH1 0x20 DUP2 DUP4 SUB SUB DUP2 MSTORE SWAP1 PUSH1 0x40 MSTORE DUP1 MLOAD SWAP1 PUSH1 0x20 ADD KECCAK256 DUP3 PUSH1 0x40 MLOAD PUSH1 0x20 ADD PUSH2 0x102 SWAP2 SWAP1 PUSH2 0x427 JUMP JUMPDEST PUSH1 0x40 MLOAD PUSH1 0x20 DUP2 DUP4 SUB SUB DUP2 MSTORE SWAP1 PUSH1 0x40 MSTORE DUP1 MLOAD SWAP1 PUSH1 0x20 ADD KECCAK256 EQ PUSH2 0x158 JUMPI PUSH1 0x40 MLOAD PUSH32 0x8C379A000000000000000000000000000000000000000000000000000000000 DUP2 MSTORE PUSH1 0x4 ADD PUSH2 0x14F SWAP1 PUSH2 0x475 JUMP JUMPDEST PUSH1 0x40 MLOAD DUP1 SWAP2 SUB SWAP1 REVERT JUMPDEST PUSH1 0x40 MLOAD DUP1 PUSH1 0x40 ADD PUSH1 0x40 MSTORE DUP1 PUSH1 0x10 DUP2 MSTORE PUSH1 0x20 ADD PUSH32 0x436F72726563742070617373776F726400000000000000000000000000000000 DUP2 MSTORE POP SWAP1 POP SWAP2 SWAP1 POP JUMP JUMPDEST PUSH1 0x0 PUSH1 0x5 PUSH1 0x0 SLOAD ADD TIMESTAMP GT PUSH2 0x1DE JUMPI PUSH1 0x40 MLOAD PUSH32 0x8C379A000000000000000000000000000000000000000000000000000000000 DUP2 MSTORE PUSH1 0x4 ADD PUSH2 0x1D5 SWAP1 PUSH2 0x495 JUMP JUMPDEST PUSH1 0x40 MLOAD DUP1 SWAP2 SUB SWAP1 REVERT JUMPDEST TIMESTAMP PUSH1 0x0 DUP2 SWAP1 SSTORE POP DUP2 PUSH1 0x1 SLOAD ADD PUSH1 0x1 DUP2 SWAP1 SSTORE POP SWAP2 SWAP1 POP JUMP JUMPDEST PUSH1 0x0 DUP3 PUSH1 0x1F DUP4 ADD SLT PUSH2 0x206 JUMPI PUSH1 0x0 DUP1 REVERT JUMPDEST DUP2 CALLDATALOAD PUSH2 0x219 PUSH2 0x214 DUP3 PUSH2 0x4FD JUMP JUMPDEST PUSH2 0x4D0 JUMP JUMPDEST SWAP2 POP DUP1 DUP3 MSTORE PUSH1 0x20 DUP4 ADD PUSH1 0x20 DUP4 ADD DUP6 DUP4 DUP4 ADD GT ISZERO PUSH2 0x235 JUMPI PUSH1 0x0 DUP1 REVERT JUMPDEST PUSH2 0x240 DUP4 DUP3 DUP5 PUSH2 0x55A JUMP JUMPDEST POP POP POP SWAP3 SWAP2 POP POP JUMP JUMPDEST PUSH1 0x0 DUP2 CALLDATALOAD SWAP1 POP PUSH2 0x258 DUP2 PUSH2 0x5AD JUMP JUMPDEST SWAP3 SWAP2 POP POP JUMP JUMPDEST PUSH1 0x0 PUSH1 0x20 DUP3 DUP5 SUB SLT ISZERO PUSH2 0x270 JUMPI PUSH1 0x0 DUP1 REVERT JUMPDEST PUSH1 0x0 DUP3 ADD CALLDATALOAD PUSH8 0xFFFFFFFFFFFFFFFF DUP2 GT ISZERO PUSH2 0x28A JUMPI PUSH1 0x0 DUP1 REVERT JUMPDEST PUSH2 0x296 DUP5 DUP3 DUP6 ADD PUSH2 0x1F5 JUMP JUMPDEST SWAP2 POP POP SWAP3 SWAP2 POP POP JUMP JUMPDEST PUSH1 0x0 PUSH1 0x20 DUP3 DUP5 SUB SLT ISZERO PUSH2 0x2B1 JUMPI PUSH1 0x0 DUP1 REVERT JUMPDEST PUSH1 0x0 PUSH2 0x2BF DUP5 DUP3 DUP6 ADD PUSH2 0x249 JUMP JUMPDEST SWAP2 POP POP SWAP3 SWAP2 POP POP JUMP JUMPDEST PUSH1 0x0 PUSH2 0x2D3 DUP3 PUSH2 0x529 JUMP JUMPDEST PUSH2 0x2DD DUP2 DUP6 PUSH2 0x534 JUMP JUMPDEST SWAP4 POP PUSH2 0x2ED DUP2 DUP6 PUSH1 0x20 DUP7 ADD PUSH2 0x569 JUMP JUMPDEST PUSH2 0x2F6 DUP2 PUSH2 0x59C JUMP JUMPDEST DUP5 ADD SWAP2 POP POP SWAP3 SWAP2 POP POP JUMP JUMPDEST PUSH1 0x0 PUSH2 0x30C DUP3 PUSH2 0x529 JUMP JUMPDEST PUSH2 0x316 DUP2 DUP6 PUSH2 0x545 JUMP JUMPDEST SWAP4 POP PUSH2 0x326 DUP2 DUP6 PUSH1 0x20 DUP7 ADD PUSH2 0x569 JUMP JUMPDEST DUP1 DUP5 ADD SWAP2 POP POP SWAP3 SWAP2 POP POP JUMP JUMPDEST PUSH1 0x0 PUSH2 0x33F PUSH1 0x8 DUP4 PUSH2 0x545 JUMP JUMPDEST SWAP2 POP PUSH32 0x50617373776F7264000000000000000000000000000000000000000000000000 PUSH1 0x0 DUP4 ADD MSTORE PUSH1 0x8 DUP3 ADD SWAP1 POP SWAP2 SWAP1 POP JUMP JUMPDEST PUSH1 0x0 PUSH2 0x37F PUSH1 0x2F DUP4 PUSH2 0x534 JUMP JUMPDEST SWAP2 POP PUSH32 0x5468652070617373776F7264206973206E6F74207468652073616D6520617320 PUSH1 0x0 DUP4 ADD MSTORE PUSH32 0x746865206F6E6520656E74657265640000000000000000000000000000000000 PUSH1 0x20 DUP4 ADD MSTORE PUSH1 0x40 DUP3 ADD SWAP1 POP SWAP2 SWAP1 POP JUMP JUMPDEST PUSH1 0x0 PUSH2 0x3E5 PUSH1 0x14 DUP4 PUSH2 0x534 JUMP JUMPDEST SWAP2 POP PUSH32 0x596F75207374696C6C2063616E27742070617921000000000000000000000000 PUSH1 0x0 DUP4 ADD MSTORE PUSH1 0x20 DUP3 ADD SWAP1 POP SWAP2 SWAP1 POP JUMP JUMPDEST PUSH2 0x421 DUP2 PUSH2 0x550 JUMP JUMPDEST DUP3 MSTORE POP POP JUMP JUMPDEST PUSH1 0x0 PUSH2 0x433 DUP3 DUP5 PUSH2 0x301 JUMP JUMPDEST SWAP2 POP DUP2 SWAP1 POP SWAP3 SWAP2 POP POP JUMP JUMPDEST PUSH1 0x0 PUSH2 0x449 DUP3 PUSH2 0x332 JUMP JUMPDEST SWAP2 POP DUP2 SWAP1 POP SWAP2 SWAP1 POP JUMP JUMPDEST PUSH1 0x0 PUSH1 0x20 DUP3 ADD SWAP1 POP DUP2 DUP2 SUB PUSH1 0x0 DUP4 ADD MSTORE PUSH2 0x46D DUP2 DUP5 PUSH2 0x2C8 JUMP JUMPDEST SWAP1 POP SWAP3 SWAP2 POP POP JUMP JUMPDEST PUSH1 0x0 PUSH1 0x20 DUP3 ADD SWAP1 POP DUP2 DUP2 SUB PUSH1 0x0 DUP4 ADD MSTORE PUSH2 0x48E DUP2 PUSH2 0x372 JUMP JUMPDEST SWAP1 POP SWAP2 SWAP1 POP JUMP JUMPDEST PUSH1 0x0 PUSH1 0x20 DUP3 ADD SWAP1 POP DUP2 DUP2 SUB PUSH1 0x0 DUP4 ADD MSTORE PUSH2 0x4AE DUP2 PUSH2 0x3D8 JUMP JUMPDEST SWAP1 POP SWAP2 SWAP1 POP JUMP JUMPDEST PUSH1 0x0 PUSH1 0x20 DUP3 ADD SWAP1 POP PUSH2 0x4CA PUSH1 0x0 DUP4 ADD DUP5 PUSH2 0x418 JUMP JUMPDEST SWAP3 SWAP2 POP POP JUMP JUMPDEST PUSH1 0x0 PUSH1 0x40 MLOAD SWAP1 POP DUP2 DUP2 ADD DUP2 DUP2 LT PUSH8 0xFFFFFFFFFFFFFFFF DUP3 GT OR ISZERO PUSH2 0x4F3 JUMPI PUSH1 0x0 DUP1 REVERT JUMPDEST DUP1 PUSH1 0x40 MSTORE POP SWAP2 SWAP1 POP JUMP JUMPDEST PUSH1 0x0 PUSH8 0xFFFFFFFFFFFFFFFF DUP3 GT ISZERO PUSH2 0x514 JUMPI PUSH1 0x0 DUP1 REVERT JUMPDEST PUSH1 0x1F NOT PUSH1 0x1F DUP4 ADD AND SWAP1 POP PUSH1 0x20 DUP2 ADD SWAP1 POP SWAP2 SWAP1 POP JUMP JUMPDEST PUSH1 0x0 DUP2 MLOAD SWAP1 POP SWAP2 SWAP1 POP JUMP JUMPDEST PUSH1 0x0 DUP3 DUP3 MSTORE PUSH1 0x20 DUP3 ADD SWAP1 POP SWAP3 SWAP2 POP POP JUMP JUMPDEST PUSH1 0x0 DUP2 SWAP1 POP SWAP3 SWAP2 POP POP JUMP JUMPDEST PUSH1 0x0 DUP2 SWAP1 POP SWAP2 SWAP1 POP JUMP JUMPDEST DUP3 DUP2 DUP4 CALLDATACOPY PUSH1 0x0 DUP4 DUP4 ADD MSTORE POP POP POP JUMP JUMPDEST PUSH1 0x0 JUMPDEST DUP4 DUP2 LT ISZERO PUSH2 0x587 JUMPI DUP1 DUP3 ADD MLOAD DUP2 DUP5 ADD MSTORE PUSH1 0x20 DUP2 ADD SWAP1 POP PUSH2 0x56C JUMP JUMPDEST DUP4 DUP2 GT ISZERO PUSH2 0x596 JUMPI PUSH1 0x0 DUP5 DUP5 ADD MSTORE JUMPDEST POP POP POP POP JUMP JUMPDEST PUSH1 0x0 PUSH1 0x1F NOT PUSH1 0x1F DUP4 ADD AND SWAP1 POP SWAP2 SWAP1 POP JUMP JUMPDEST PUSH2 0x5B6 DUP2 PUSH2 0x550 JUMP JUMPDEST DUP2 EQ PUSH2 0x5C1 JUMPI PUSH1 0x0 DUP1 REVERT JUMPDEST POP JUMP INVALID LOG2 PUSH5 0x6970667358 0x22 SLT KECCAK256 0x5E 0xB9 0xAD DUP9 LOG0 0xB3 PUSH14 0x858F56C9E828901B438AF8C0326 PUSH16 0x60D60AC4584EB8C00E7164736F6C6343 STOP MOD 0xC STOP CALLER "
				},
				"gasEstimates": {
					"creation": {
						"codeDepositCost": "306000",
						"executionCost": "10355",
						"totalCost": "316355"
					},
					"external": {
						"password(string)": "infinite",
						"pay(uint256)": "infinite",
						"wallet()": "1107"
					}
				},
				"methodIdentifiers": {
					"password(string)": "71d3f37a",
					"pay(uint256)": "c290d691",
					"wallet()": "521eb273"
				}
			},
			"storageLayout": {
				"storage": [
					{
						"astId": 32,
						"contract": "Funciones avanzadas/requires.sol:Require",
						"label": "time",
						"offset": 0,
						"slot": "0",
						"type": "t_uint256"
					},
					{
						"astId": 35,
						"contract": "Funciones avanzadas/requires.sol:Require",
						"label": "wallet",
						"offset": 0,
						"slot": "1",
						"type": "t_uint256"
					}
				],
				"types": {
					"t_uint256": {
						"encoding": "inplace",
						"label": "uint256",
						"numberOfBytes": "32"
					}
				}
			},
			"userdoc": {
				"kind": "user",
				"methods": {},
				"version": 1
			}
		}
	}
}