{
	"data": {
		"bytecode": {
			"linkReferences": {},
			"object": "608060405234801561001057600080fd5b506101f8806100206000396000f3fe608060405234801561001057600080fd5b506004361061004c5760003560e01c80630614fd7e14610051578063c8c5f21114610093578063eb57b482146100b1578063fa7f51fd146100d1575b600080fd5b61007d6004803603602081101561006757600080fd5b81019080803590602001909291905050506100db565b6040518082815260200191505060405180910390f35b61009b610155565b6040518082815260200191505060405180910390f35b6100b9610199565b60405180821515815260200191505060405180910390f35b6100d96101b9565b005b6000806001830190505b60011561014c576000600290506000600190505b8282101561012957600082848161010c57fe5b06141561011c5760009050610129565b81806001019250506100f9565b60011515811515141561013d57505061014c565b828060010193505050506100e5565b80915050919050565b600080600090506000600190505b60648110156101915760006002828161017857fe5b06146101845780820191505b8080600101915050610163565b819250505090565b60006005600054014210156101b157600090506101b6565b600190505b90565b4260008190555056fea2646970667358221220e5fa1d3c14da2608490c3def3a5fa2d854732a93291dd7cb0fc2316d7e34311f64736f6c634300060c0033",
			"opcodes": "PUSH1 0x80 PUSH1 0x40 MSTORE CALLVALUE DUP1 ISZERO PUSH2 0x10 JUMPI PUSH1 0x0 DUP1 REVERT JUMPDEST POP PUSH2 0x1F8 DUP1 PUSH2 0x20 PUSH1 0x0 CODECOPY PUSH1 0x0 RETURN INVALID PUSH1 0x80 PUSH1 0x40 MSTORE CALLVALUE DUP1 ISZERO PUSH2 0x10 JUMPI PUSH1 0x0 DUP1 REVERT JUMPDEST POP PUSH1 0x4 CALLDATASIZE LT PUSH2 0x4C JUMPI PUSH1 0x0 CALLDATALOAD PUSH1 0xE0 SHR DUP1 PUSH4 0x614FD7E EQ PUSH2 0x51 JUMPI DUP1 PUSH4 0xC8C5F211 EQ PUSH2 0x93 JUMPI DUP1 PUSH4 0xEB57B482 EQ PUSH2 0xB1 JUMPI DUP1 PUSH4 0xFA7F51FD EQ PUSH2 0xD1 JUMPI JUMPDEST PUSH1 0x0 DUP1 REVERT JUMPDEST PUSH2 0x7D PUSH1 0x4 DUP1 CALLDATASIZE SUB PUSH1 0x20 DUP2 LT ISZERO PUSH2 0x67 JUMPI PUSH1 0x0 DUP1 REVERT JUMPDEST DUP2 ADD SWAP1 DUP1 DUP1 CALLDATALOAD SWAP1 PUSH1 0x20 ADD SWAP1 SWAP3 SWAP2 SWAP1 POP POP POP PUSH2 0xDB JUMP JUMPDEST PUSH1 0x40 MLOAD DUP1 DUP3 DUP2 MSTORE PUSH1 0x20 ADD SWAP2 POP POP PUSH1 0x40 MLOAD DUP1 SWAP2 SUB SWAP1 RETURN JUMPDEST PUSH2 0x9B PUSH2 0x155 JUMP JUMPDEST PUSH1 0x40 MLOAD DUP1 DUP3 DUP2 MSTORE PUSH1 0x20 ADD SWAP2 POP POP PUSH1 0x40 MLOAD DUP1 SWAP2 SUB SWAP1 RETURN JUMPDEST PUSH2 0xB9 PUSH2 0x199 JUMP JUMPDEST PUSH1 0x40 MLOAD DUP1 DUP3 ISZERO ISZERO DUP2 MSTORE PUSH1 0x20 ADD SWAP2 POP POP PUSH1 0x40 MLOAD DUP1 SWAP2 SUB SWAP1 RETURN JUMPDEST PUSH2 0xD9 PUSH2 0x1B9 JUMP JUMPDEST STOP JUMPDEST PUSH1 0x0 DUP1 PUSH1 0x1 DUP4 ADD SWAP1 POP JUMPDEST PUSH1 0x1 ISZERO PUSH2 0x14C JUMPI PUSH1 0x0 PUSH1 0x2 SWAP1 POP PUSH1 0x0 PUSH1 0x1 SWAP1 POP JUMPDEST DUP3 DUP3 LT ISZERO PUSH2 0x129 JUMPI PUSH1 0x0 DUP3 DUP5 DUP2 PUSH2 0x10C JUMPI INVALID JUMPDEST MOD EQ ISZERO PUSH2 0x11C JUMPI PUSH1 0x0 SWAP1 POP PUSH2 0x129 JUMP JUMPDEST DUP2 DUP1 PUSH1 0x1 ADD SWAP3 POP POP PUSH2 0xF9 JUMP JUMPDEST PUSH1 0x1 ISZERO ISZERO DUP2 ISZERO ISZERO EQ ISZERO PUSH2 0x13D JUMPI POP POP PUSH2 0x14C JUMP JUMPDEST DUP3 DUP1 PUSH1 0x1 ADD SWAP4 POP POP POP POP PUSH2 0xE5 JUMP JUMPDEST DUP1 SWAP2 POP POP SWAP2 SWAP1 POP JUMP JUMPDEST PUSH1 0x0 DUP1 PUSH1 0x0 SWAP1 POP PUSH1 0x0 PUSH1 0x1 SWAP1 POP JUMPDEST PUSH1 0x64 DUP2 LT ISZERO PUSH2 0x191 JUMPI PUSH1 0x0 PUSH1 0x2 DUP3 DUP2 PUSH2 0x178 JUMPI INVALID JUMPDEST MOD EQ PUSH2 0x184 JUMPI DUP1 DUP3 ADD SWAP2 POP JUMPDEST DUP1 DUP1 PUSH1 0x1 ADD SWAP2 POP POP PUSH2 0x163 JUMP JUMPDEST DUP2 SWAP3 POP POP POP SWAP1 JUMP JUMPDEST PUSH1 0x0 PUSH1 0x5 PUSH1 0x0 SLOAD ADD TIMESTAMP LT ISZERO PUSH2 0x1B1 JUMPI PUSH1 0x0 SWAP1 POP PUSH2 0x1B6 JUMP JUMPDEST PUSH1 0x1 SWAP1 POP JUMPDEST SWAP1 JUMP JUMPDEST TIMESTAMP PUSH1 0x0 DUP2 SWAP1 SSTORE POP JUMP INVALID LOG2 PUSH5 0x6970667358 0x22 SLT KECCAK256 0xE5 STATICCALL SAR EXTCODECOPY EQ 0xDA 0x26 ADDMOD 0x49 0xC RETURNDATASIZE 0xEF GASPRICE 0x5F LOG2 0xD8 SLOAD PUSH20 0x2A93291DD7CB0FC2316D7E34311F64736F6C6343 STOP MOD 0xC STOP CALLER "
		},
		"gasEstimates": {
			"creation": {
				"codeDepositCost": "100800",
				"executionCost": "147",
				"totalCost": "100947"
			},
			"external": {
				"espera()": "1083",
				"fijarTiempo()": "20201",
				"siguientePrimo(uint256)": "infinite",
				"suma_impares()": "infinite"
			}
		},
		"methodIdentifiers": {
			"espera()": "eb57b482",
			"fijarTiempo()": "fa7f51fd",
			"siguientePrimo(uint256)": "0614fd7e",
			"suma_impares()": "c8c5f211"
		}
	},
	"abi": [
		{
			"inputs": [],
			"name": "espera",
			"outputs": [
				{
					"internalType": "bool",
					"name": "",
					"type": "bool"
				}
			],
			"stateMutability": "view",
			"type": "function"
		},
		{
			"inputs": [],
			"name": "fijarTiempo",
			"outputs": [],
			"stateMutability": "nonpayable",
			"type": "function"
		},
		{
			"inputs": [
				{
					"internalType": "uint256",
					"name": "_p",
					"type": "uint256"
				}
			],
			"name": "siguientePrimo",
			"outputs": [
				{
					"internalType": "uint256",
					"name": "",
					"type": "uint256"
				}
			],
			"stateMutability": "pure",
			"type": "function"
		},
		{
			"inputs": [],
			"name": "suma_impares",
			"outputs": [
				{
					"internalType": "uint256",
					"name": "",
					"type": "uint256"
				}
			],
			"stateMutability": "pure",
			"type": "function"
		}
	]
}